{
  "contractName": "CoinFlipWager",
  "abi": [
    {
      "constant": true,
      "inputs": [],
      "name": "owner",
      "outputs": [
        {
          "internalType": "address",
          "name": "",
          "type": "address"
        }
      ],
      "payable": false,
      "stateMutability": "view",
      "type": "function"
    },
    {
      "constant": false,
      "inputs": [
        {
          "internalType": "string",
          "name": "betOption",
          "type": "string"
        },
        {
          "internalType": "uint256",
          "name": "betAmount",
          "type": "uint256"
        }
      ],
      "name": "placeWager",
      "outputs": [
        {
          "internalType": "uint256",
          "name": "",
          "type": "uint256"
        }
      ],
      "payable": true,
      "stateMutability": "payable",
      "type": "function"
    },
    {
      "constant": true,
      "inputs": [],
      "name": "flip",
      "outputs": [
        {
          "internalType": "uint256",
          "name": "",
          "type": "uint256"
        }
      ],
      "payable": false,
      "stateMutability": "view",
      "type": "function"
    }
  ],
  "bytecode": "0x6080604052336000806101000a81548173ffffffffffffffffffffffffffffffffffffffff021916908373ffffffffffffffffffffffffffffffffffffffff160217905550610217806100536000396000f3fe6080604052600436106100345760003560e01c80638da5cb5b14610039578063c74e3af014610090578063cde4efa914610169575b600080fd5b34801561004557600080fd5b5061004e610194565b604051808273ffffffffffffffffffffffffffffffffffffffff1673ffffffffffffffffffffffffffffffffffffffff16815260200191505060405180910390f35b610153600480360360408110156100a657600080fd5b81019080803590602001906401000000008111156100c357600080fd5b8201836020820111156100d557600080fd5b803590602001918460018302840111640100000000831117156100f757600080fd5b91908080601f016020809104026020016040519081016040528093929190818152602001838380828437600081840152601f19601f820116905080830192505050505050509192919290803590602001909291905050506101b9565b6040518082815260200191505060405180910390f35b34801561017557600080fd5b5061017e6101d0565b6040518082815260200191505060405180910390f35b6000809054906101000a900473ffffffffffffffffffffffffffffffffffffffff1681565b6000806101c46101d0565b90508091505092915050565b6000600242816101dc57fe5b0690509056fea265627a7a7231582023c007dbaa048a431dc24ec0c3082da8e2dff13609276e3b906ef8cc6c30dad964736f6c634300050c0032",
  "source": "import \"./Ownable.sol\";\npragma solidity 0.5.12;\n\ncontract CoinFlipWager is Ownable{\n\n    function placeWager(string memory betOption, uint betAmount) public payable returns(uint) {\n        // Flip the coin\n        uint flipResult = flip();\n\n        return flipResult;\n    }\n\n    // Coin flip\n    //  0 - heads\n    //  1 - tails\n    function flip() public view returns (uint) {\n        return now % 2;\n    }\n}\n",
  "sourcePath": "/home/wolff/EthereumProjects/Ivan-Solidity-201/CoinFlip/Blockchain/contracts/CoinFlipWager.sol",
  "compiler": {
    "name": "solc",
    "version": "0.5.12+commit.7709ece9.Emscripten.clang"
  },
  "schemaVersion": "3.0.16",
  "updatedAt": "2020-06-01T23:22:02.348Z",
  "devdoc": {
    "methods": {}
  },
  "userdoc": {
    "methods": {}
  }
}